:020000040000FA
:0200000050D0DE
:080008001ED08A8E00000000EA
:1000100000000000000000000000000000000000E0
:100020008A9ECF6ACE6A81ACFED7CD8081BCFED7D6
:10003000CD90D58ECE50CFCF04F0040E04601000CA
:10004000060E8B6E1000D59EEC0ED76E780ED66E17
:10005000F294002A0A0E8B60D8D78A800000000034
:100060000000000000000000000000000000000090
:100070008A90CF6ACE6A81A2FED7CD8081B2FED7A8
:10008000CD90D58ECE50CFCF04F0070E0460100077
:10009000030E046403D0090E8B6E10000A0E8B6EE3
:1000A000B4D76A0ED36E000E9B6ED180006A026ACE
:1000B000020EFA6E8A9093908B6AF00E946E8A9E6E
:1000C000939EEC0ED76E780ED66E800ED56ECF6AEC
:1000D000CE6A800ECD6ED08EF294E00EF26E0400E9
:0A00E000320E006010EC01F0FAD7B8
:10020000F926050C050C050C050C010C050C050C5C
:10021000050C050C050C040C0A0C0A0C0A0C0A0C43
:10022000006A025000EC01F08B6E1C0E026003D0DD
:0A023000020E02261200026A1200FC
:020000040030CA
:03000100091810CB
:020005008181F7
:060008000FC00FE00F40E5
:00000001FF
